:020000040800F2
:10000000200E0020515400085123000853230008FB
:10001000572300085B2300085F230008000000004E
:100020000000000000000000000000006323000842
:10003000652300080000000067230008692300080A
:100040006B5400086B5400086B5400086B54000894
:100050006B5400086B5400086B5400086B54000884
:100060006B5400086B5400086B5400086B54000874
:100070006B5400086B5400086B5400086B54000864
:100080006B5400086B5400086B5400086B54000854
:100090006B5400086B5400086B5400086B54000844
:1000A0006B5400086B5400086B5400086B54000834
:1000B0006B5400086B5400086B5400086B54000824
:1000C0006B5400086B5400086B5400086B54000814
:1000D0006B540008F3500008F7520008AF530008B3
:1000E0006B5400086B5400086B54000800F002F8D1
:1000F00000F05AF80AA090E8000C82448344AAF168
:100100000107DA4501D100F04FF8AFF2090EBAE865
:100110000F0013F0010F18BFFB1A43F0010318473B
:10012000E0700000007100000A444FF0000C10F86D
:10013000013B13F0070408BF10F8014B1D1108BF65
:1001400010F8015B641E05D010F8016B641E01F805
:10015000016BF9D113F0080F1EBF10F8014BAD1C55
:100160000C1B09D16D1E58BF01F801CBFAD505E073
:1001700014F8016B01F8016B6D1EF9D59142D6D3CD
:10018000704700000023002400250026103A28BFF5
:1001900078C1FBD8520728BF30C148BF0B607047F9
:1001A0001FB51FBD10B510BD06F0FBFF1146FFF7D0
:1001B000F7FF00F009F807F019F803B4FFF7F2FFB2
:1001C00003BC04F0C9FD000086B00020FE490870A1
:1001D000FE490870FE49087002F036F9482004F024
:1001E00061FD04F0B3FD4FF4E13004F0C3FD4FF4C2
:1001F000613004F00BFE03F0C1FF02F0A5F904F03A
:100200005CFA04F0E4FAF34801460246F24BCDE909
:100210000132CDE90310F148F14BF24AF249009066
:10022000012004F00BFB0A2004F056FD0020EF49EA
:100230000870EF4804F046F9EEA1F24804F08FFE92
:10024000EB48007801460490EE4804F0D9FEEEA198
:10025000EC4804F084FEE648407801460490E94802
:1002600004F0CEFEE2480078EF2817D1E04840784D
:10027000162813D1E5A1E34804F071FED5480146E4
:10028000E84AE94BCDE90132CDE90310E748E84BF4
:10029000E84A0090022004F0D1FA12E0E6A1D94821
:1002A00004F05DFECB480146DE4AE84BCDE9013261
:1002B000CDE90310DD48DE4BDE4A0090022004F059
:1002C000BDFA0020E249087068E05521E14804F0D9
:1002D000FEFDAA21DF4804F0FAFD0121DD4804F00B
:1002E000F6FDFF21DB4804F0F2FDFF21D94804F0C0
:1002F000EEFDFF21D74804F0EAFDFF21D54804F0C8
:10030000E6FDFF21D34804F0E2FDFF21D14804F0CF
:10031000DEFD4FF4FA7004F0DFFCAC4800780128F1
:1003200037D10020A9490870CBA1B64804F017FEC8
:100330000020CF49087011E0AD48CD490978405CF4
:1003400001460490AF4804F05BFEAFA1AD4804F055
:1003500006FEC7480078401CC5490870C4480078AC
:100360000628E9DBC3A1A74804F0F9FDA04880787E
:100370004E280ED19E48C07846280AD19C48007964
:10038000432806D19A484079202802D13C20B04920
:100390000870AF480078401CAD490870AC48007840
:1003A000322892DBAA480078372827DD89480146A1
:1003B00002469C4BCDE90132CDE903109A48AE4B81
:1003C000AE4A0090032004F039FA82480146954A6B
:1003D000954BCDE90132CDE903108048804B814A2D
:1003E00081490090042004F029FAA5A1854804F071
:1003F000B6FDA7A1834804F0B2FD46E0754801466A
:100400000246884BCDE90132CDE903108F489A4B63
:100410009A4A0090032004F011FA6E480146814A7E
:100420008A4BCDE90132CDE903106C486C4B6D4A23
:100430006D490090042004F001FA99A1714804F07C
:100440008EFD9BA16F4804F08AFD0020884908704A
:1004500017E002F08AF85E49087008460078032821
:1004600007D19BA1674804F07AFDFE2080490870FF
:1004700002E000207E4908707D480078401C7C49DD
:1004800008707B480078FF28E3DB41F2883004F0F5
:1004900023FC01205549087004F099F90120934983
:1004A00008704C489249934A734BCDE90132CDE92B
:1004B00003107248904B914A91490090012004F03A
:1004C000BDF944488F49904A6B4BCDE90132CDE9E3
:1004D00003106A48884B894A3E490090022004F084
:1004E000ADF98AA1474804F03AFD8DA1454804F0D2
:1004F00036FD91A1434804F032FD01F095BE3B4822
:100500000078052881F08F86DFE810F005000B00E9
:1005100066029107380B8EA13A4804F020FD01F0E5
:1005200082BE02F022F82A490870084600780128A5
:1005300037D16E480078012819D102206B49087024
:10054000244A0121084604F05DF96D4A0121032087
:1005500004F058F96DA12B4804F001FD84A129484D
:1005600004F0FDFC88A1274804F0F9FC30E20120EA
:100570005E490870174A0121032004F043F9604ADC
:100580000121084604F03EF960A11E4804F0E7FC92
:1005900063A11C4804F0E3FC67A11A4804F0DFFCE7
:1005A00016E20B48007802280CD150480078012848
:1005B00009D102200D49087004F009F901204B49C6
:1005C0000870EDE0C9E100E1420500202E050020A1
:1005D0003B0500209805002040020020E00200209A
:1005E000C0020020600000204000002039050020EB
:1005F000B8050020466C6173682773204944206960
:1006000073203A000038014020200000BCECB2E228
:10061000B5BD464C415348A3BA5732355136342004
:10062000200D0A008003002060030020400300200A
:100630002003002000030020C3BBD3D0BCECB2E2F7
:10064000B5BD464C41534820200D0A00A0030020B0
:100650002505002000440040435239352DC3FCC11C
:10066000EE31B7B5BBD8CAFDBEDDCEAAA3BA000035
:10067000260500200A0000002002002000020020C1
:1006800043523935BCECB2E2D5FDB3A3A3A10A00B5
:10069000CFB5CDB3D7D4BCECCDEAB3C9A3A10A0082
:1006A00043523935BCECB2E2D2ECB3A3A3A10A00A9
:1006B000CFB5CDB3D7D4BCECD2ECB3A3A3A1B0B427
:1006C000BBD8CDCBBCFCBFC9BCCCD0F8A3A10A0021
:1006D000CFB5CDB3D2ECB3A3A3ACD3C3BBA7D1A149
:1006E000D4F1BCCCD0F8A3A10A0000003A05002048
:1006F000E0000020C00000200000002020000020BA
:10070000A00200202001002000010020C7EBD1A1A1
:10071000D4F1B9A4D7F7C4A3CABDA3A10A000000AD
:100720002D3E2020BDF8C8EBCAFDBEDDBDD3CAD525
:10073000C4A3CABDA3A10A0020202020BDF8C8EB95
:10074000CAFDBEDDB7A2CBCDC4A3CABDA3A10A001A
:10075000CFB5CDB3B3F6B4EDA3ACB1BEB6CEB2BB9C
:10076000D3A6B8C3BDF8C8EBA3A1A3A1A3A10A0057
:1007700020202020BDF8C8EBCAFDBEDDBDD3CAD500
:10078000C4A3CABDA3A10A002D3E2020BDF8C8EB1A
:10079000CAFDBEDDB7A2CBCDC4A3CABDA3A10A00CA
:1007A000F14801460246F14BCDE90132CDE9031093
:1007B000EF48F04BF04AF1490090012004F03EF878
:1007C000EFA1FA4804F0CBFB02E10320F8490870DE
:1007D00003F0FDFF0120F7490870F7A1F34804F08A
:1007E000BEFBFE48007810F0010F14D0DE48E2494D
:1007F000E24AFB4BCDE90132CDE90310F948FA4B4F
:10080000FA4AFB490090012004F018F8F9A1E748E2
:1008100004F0A5FB13E0D448D749D84AF04BCDE902
:100820000132CDE90310EF48EF4BF74AF049009051
:10083000012004F003F8F5A1DC4804F090FBE74840
:10084000007800F00200022814D1C748CA49CB4AF8
:10085000E34BCDE90132CDE90310F248E24BE34A24
:10086000C1490090022003F0E9FFEFA1CF4804F056
:1008700076FB13E0BC48C049C04AD94BCDE90132F0
:10088000CDE90310E748D84BDF4AB7490090022072
:1008900003F0D4FFE9A1C54804F061FBCF4800781C
:1008A00000F00400042814D1AF48B349B34ACC4B3C
:1008B000CDE90132CDE90310E648CB4BCB4AAA493A
:1008C0000090032003F0BAFFE3A1B84804F047FB0F
:1008D00013E0A548A849A94AC14BCDE90132CDE9A9
:1008E0000310DC48C04BC84A9F490090032003F026
:1008F000A5FFDEA1AD4804F032FBB848007800F057
:100900000800082814D198489B499C4AB44BCDE96B
:100910000132CDE90310DB48B34BB44A9249009051
:10092000042003F08BFFD8A1A04804F018FB4FE08F
:100930008D489149914AAA4BCDE90132CDE9031086
:10094000D048A94BB04A88490090042003F076FFB4
:10095000D2A1964804F003FB3AE0D6480078032879
:1009600036D101209249087003F031FF01209149EE
:1009700008707D487E497F4A7F4BCDE90132CDE941
:1009800003107E48CC4BCD4A99490090012003F0DA
:1009900055FF7548CA49CB4A774BCDE90132CDE9BD
:1009A00003107648C44BC54A6F490090022003F0FB
:1009B00045FFAFF2A8217D4804F0D1FAAFF25021F3
:1009C0007A4804F0CCFAAFF24021784804F0C7FA34
:1009D0000020B8490870A2E5BB480078012855D12D
:1009E0000020B9490870B949087003F0F0FE5E486C
:1009F000B749B84AB84BCDE90132CDE90310B74841
:100A0000B74BB84A5A490090022003F017FF5648E6
:100A10000146B54AB54BCDE90132CDE90310B448E2
:100A2000AD4BAE4AAE490090032003F007FF03F040
:100A30007DFDB0A15D4804F092FAB5A15B4804F0D9
:100A40008EFA494801460246BA4BCDE90132CDE95A
:100A50000310B948A04BA14AA1490090032003F01C
:100A6000EDFE7E21514804F032FA7E214F4804F019
:100A70002EFACD214D4804F02AFA03214B4804F008
:100A800026FACC21494804F022FA43E38E48007844
:100A9000022866D100208C4908708C49087003F048
:100AA00096FE314801468A4A8A4BCDE90132CDE9AA
:100AB0000310A248A24B8B4A2D490090022003F05C
:100AC000BDFEA0480068B730B821B0FBF1F09E49E8
:100AD0000988884246D19D480068B730B821B0FBEC
:100AE000F1F09B4909888842F4D19A480068B730F0
:100AF000B821B0FBF1F0984909888842EAD19748BB
:100B00000068B730B821B0FBF1F0954909888842F8
:100B1000E0D194A1254804F022FA8A480068B73051
:100B2000B821B0FBF1F0C0B2014604901F4804F0B8
:100B300067FA91A11D4804F012FA83480078014633
:100B400004901A4804F05CFA8FA1184804F007FAE0
:100B50008FA1164804F003FA7C480068B730B8212A
:100B600020E1CCE1A2E10000980500204002002035
:100B7000E0000020C0000020200200200002002031
:100B8000BDF8C8EBCAFDBEDDBDD3CAD5C4A3CABD7E
:100B9000A3A12D2DB5C8B4FDB4ABCAE4D6B8C1EE3F
:100BA000BBF2CAFDBEDDA3A1A3A10A00003801402B
:100BB000390500203A050020BDF8C8EBCAFDBEDDAE
:100BC000B7A2CBCDC4A3CABD2D2DCAFDBEDDB7A231
:100BD000CBCDD1A1D4F1A3A10A00000022050020B1
:100BE000E001002060010020400100208002002080
:100BF000A00200202D3E20B5DAD2BBC0E0CAFDBE67
:100C0000DD20B7A2CBCD0A00600200202D3E20B52A
:100C1000DAD2BBC0E0CAFDBEDD20B2BBB7A2CBCDED
:100C20000A00000080010020202020B5DAB6FEC0B6
:100C3000E0CAFDBEDD20B7A2CBCD0A00202020B542
:100C4000DAB6FEC0E0CAFDBEDD20B2BBB7A2CBCD96
:100C50000A000000A0010020202020B5DAC8FDC055
:100C6000E0CAFDBEDD20B7A2CBCD0A00202020B512
:100C7000DAC8FDC0E0CAFDBEDD20B2BBB7A2CBCD55
:100C80000A000000C0010020202020B5DACBC4C03B
:100C9000E0CAFDBEDD20B7A2CBCD0A00202020B5E2
:100CA000DACBC4C0E0CAFDBEDD20B2BBB7A2CBCD5B
:100CB0000A0000003B05002000000020200000206A
:100CC00020010020000100203D05002042050020F9
:100CD00060040020400400202004002000040020C4
:100CE000E0030020C0030020400300202003002078
:100CF00000030020CAD5B5BDD6B8C1EE312D2DB345
:100D0000F5CABCBBAFD6B8C1EEA3A10A0000000073
:100D1000B3F5CABCBBAFCDEAB3C9A3ACB7B5BBD8BA
:100D2000B3F5CABCBBAFD5FDC8B7D6B8C1EEA3A159
:100D30000A000000E0040020C0040020A0040020FD
:100D40008004002008050020180500200C05002064
:100D50001A050020100500201C05002014050020A5
:100D60001E050020B5DAD2BBC0E0CAFDBEDDD3A6A9
:100D7000CAD5B5BD2000000020B0FCCAFDBEDDA371
:100D8000ACCAD5B5BD20000020B0FC0A00000000B0
:100D9000B5DAB6FEC0E0CAFDBEDDD3A6CAD5B5BD84
:100DA00020000000B0FBF1F0C0B201460490FD4805
:100DB00004F026F9AFF24001FA4804F0D0F8FA48FE
:100DC000007801460490F74804F01AF9AFF24801A0
:100DD000F44804F0C4F8F5A1F24804F0C0F8F8486B
:100DE0000068B730B821B0FBF1F0C0B20146049002
:100DF000EC4804F005F9AFF28001EA4804F0AFF8DE
:100E0000F048007801460490E64804F0F9F8AFF2A3
:100E10008801E44804F0A3F8EBA1E24804F09FF84D
:100E2000EE480068B730B821B0FBF1F0C0B201461F
:100E30000490DC4804F0E4F8AFF2C401D94804F0AF
:100E40008EF8E748007801460490D64804F0D8F8B8
:100E5000AFF2CC01D34804F082F8E2A1D14804F00B
:100E60007EF8E548014602460346CDE90132CDE968
:100E70000310E248E24BE34AE3490090032003F009
:100E8000DDFC7E21C74804F022F87E21C54804F02D
:100E90001EF8CD21C34804F01AF80721C14804F018
:100EA00016F8D021BF4804F012F833E1D7A1BD48AD
:100EB00004F055F8D048014602460346CDE9013218
:100EC000CDE90310D948DA4BCE4ACF490090032030
:100ED00003F0B4FC7E21B34803F0F9FF7E21B14852
:100EE00003F0F5FFCD21AF4803F0F1FF0821AD4835
:100EF00003F0EDFFD121AB4803F0E9FF0AE1CD4853
:100F00000078FF28D1D10020CA490870CAA1A5489D
:100F100004F025F8CD4890F8C700CD4909788842FB
:100F20007ED10020CA490870C848C0790590C748DA
:100F30008179059801EB00200590C4484179059816
:100F400001EB00200590C1480179059801EB0020D4
:100F50000590BE48407ABF490880BC48007A0978AD
:100F600000EB0120BB490880B848C078012811D1A6
:100F7000B94905980860B7480088B8490880B8A101
:100F8000884803F0ECFFC822B2480188AF4803F05C
:100F9000E0FA43E0AD48C078022812D1BE49059876
:100FA0000860AC48008880490880BCA17D4803F0F7
:100FB000D6FFC822A7480188891DA44803F0C9FAB2
:100FC0002CE0A248C078032812D17D49059808601A
:100FD000A04800887B490880BEA1724803F0BFFF8B
:100FE000C8229C4801880C31984803F0B2FA15E0F9
:100FF0009648C078042811D178490598086095482A
:10100000008877490880C2A1664803F0A8FFC8227B
:101010009048018815318D4803F09BFACBA100E080
:101020004BE0604803F09BFF8848C078014604907D
:101030005C4803F0E5FFC7A15A4803F090FF8548DC
:10104000007801460490574803F0DAFFC5A15548DF
:1010500003F085FF5348059903F0AAFFC7A1514843
:1010600003F07DFFC6A14F4803F079FF03F0AFFB0B
:1010700061480146CB4ACC4BCDE90132CDE90310A2
:101080006A48CA4BCA4ACB490090022003F0D6FBFB
:101090007E21444803F01BFF7E21424803F017FFE6
:1010A000CD21404803F013FF05213E4803F00FFF18
:1010B000CE213C4803F00BFF2CE00020644908706F
:1010C000BDA1384803F04BFF03F081FB4A480146BD
:1010D000B44AB54BCDE90132CDE903105348544B26
:1010E000B34AB4490090022003F0A8FB7E212D48AA
:1010F00003F0EDFE7E212B4803F0E9FECD212948C7
:1011000003F0E5FE0621274803F0E1FECF21254844
:1011100003F0DDFE01F029FAB049087008460078B6
:1011200003283ED10120AE49087003F050FB012096
:10113000AC49087030489F49AB4A9A4BCDE901321F
:10114000CDE903109848A94BA94AAA49009001206B
:1011500003F074FB2848A849A84A924BCDE9013214
:10116000CDE903109048A14BA14A234900900220E9
:1011700003F064FB002038490860474908601049C3
:1011800008601649086035490880074908800D49FC
:101190000880134908802F490880AFF69021014844
:1011A0002EE13AE1003801401A050020B5DAC8FD09
:1011B000C0E0CAFDBEDDD3A6CAD5B5BD2000000083
:1011C000100500201C050020B5DACBC4C0E0CAFD24
:1011D000BEDDD3A6CAD5B5BD200000001405002091
:1011E0001E050020B7B5BBD8D7B0B6A9D5FDC8B786
:1011F000D6B8C1EEA3A10A0098050020E0040020A3
:10120000C0040020A004002080040020D7B0B6A9AC
:10121000B4EDCEF3A3A1B7B5BBD8D7B0B6A9B4EDA2
:10122000CEF3D6B8C1EEA3A10A00000080030020CF
:10123000A00300203D050020BDD3CAD5B5BDD2BB5B
:10124000B0FCCAFDBEDDA3A10A0000002D060020EF
:101250004205002020050020080500201805002078
:10126000B5DAD2BBC0E0CAFDBEDDB4E6B7C5B5D8BD
:10127000D6B7CEAAA3BAB5DA31D2B3B5BDB5DA3690
:10128000D2B3A3ACC3BFB0FCCAFDBEDDD5BCD3C3D3
:1012900031D2B3A1A30A00000C050020B5DAB6FED6
:1012A000C0E0CAFDBEDDB4E6B7C5B5D8D6B7CEAA94
:1012B000A3BAB5DA37D2B3B5BDB5DA3132D2B3A3FA
:1012C000ACC3BFB0FCCAFDBEDDD5BCD3C331D2B305
:1012D000A1A30A00B5DAC8FDC0E0CAFDBEDDB4E6D0
:1012E000B7C5B5D8D6B7CEAAA3BAB5DA3133D2B31B
:1012F000B5BDB5DA3231D2B3A3ACC3BFB0FCCAFDC1
:10130000BEDDD5BCD3C331D2B3A1A30A0000000017
:10131000B5DACBC4C0E0CAFDBEDDB4E6B7C5B5D80A
:10132000D6B7CEAAA3BAB5DA3232D2B3B5BDB5DAE2
:101330003338D2B3A3ACC3BFB0FCCAFDBEDDD5BC4D
:10134000D3C331D2B3A1A30A00000000CAD5B5BDF2
:10135000B5DA200020C0E0D0CDCAFDBEDDA3ACB51B
:10136000DA20000020B0FCCAFDBEDDA3ACB8C3C0CB
:10137000E0CAFDBEDDD7DCB3A4200000200A0000D7
:10138000CAFDBEDDD0A3D1E9D5FDC8B7A3ACB7B5C2
:10139000BBD8B0FCB4E6B4A2D5FDC8B7D6B8C1EE90
:1013A000A3A10A0020020020000200206003002008
:1013B000C0030020E0000020D0A3D1E9BACDB4EDF5
:1013C000CEF3A3A1B7B5BBD8B0FCB4E6B4A2B4EDDC
:1013D000CEF3D6B8C1EEA3A10A0000003B05002061
:1013E000390500203A050020C00000200000002040
:1013F00020000020A0020020200100200001002089
:1014000003F0ADFDAFF6E841FB4803F0A8FDAFF6F1
:10141000D841F94803F0A3FD05E00220F749087020
:101420000120F74908700020F649087000BF01F05C
:101430009CF8F44908700846007801287ED1F048ED
:101440000078401CEE4908700846007802280ED14A
:10145000ED4A0121084603F0D5F9EC4A01210320A9
:1014600003F0D0F9EAA1E44803F079FD85E3E4480C
:10147000007803280DD1E44A012103F0C3F9E34ABF
:101480000121052003F0BEF9E8A1DB4803F067FD68
:1014900073E3DB48007804280ED1DB4A01210520E4
:1014A00003F0B0F9D94A0121072003F0ABF9E6A116
:1014B000D14803F054FD60E3D148007805287DD180
:1014C000E8A1CD4803F04BFDEF48007800F00200A2
:1014D000022810D1CC48ED49ED4AEE4BCDE901325E
:1014E000CDE90310EC48ED4BED4AC74900900120CF
:1014F00003F0A4F90FE0C448E449E54AE54BCDE91F
:101500000132CDE90310E448E44BE64ABE490090BD
:10151000012003F093F9DC48007800F0040004286F
:1015200012D1B948D949DA4ADA4BCDE90132CDE9CD
:101530000310DD48D94BDA4AB34900E0F5E00090EA
:10154000022003F07BF90FE0AF48D049D04AD14BDD
:10155000CDE90132CDE90310D348D04BD14AAA4995
:101560000090022003F06AF9C748007800F00800F4
:10157000082810D1A448C549C54AC64BCDE9013257
:10158000CDE90310C948C54BC54A9F4900900320C7
:1015900003F054F90FE09C48BC49BD4ABD4BCDE96E
:1015A0000132CDE90310C148BC4BBE4A96490090B8
:1015B000032003F043F99448014600E00EE00246A0
:1015C000BB4BCDE90132CDE90310BA48AF4BB04A6D
:1015D0008E490090042003F031F9CEE2884800786B
:1015E0000628FAD1B4A1844803F0B9FC012084494B
:1015F0000870A548007810F0010F10D08248A34968
:10160000A34AA44BCDE90132CDE90310B148A34B65
:10161000A34A7E490090012003F010F90FE07A48B8
:101620009A499B4A9B4BCDE90132CDE90310A94869
:101630009A4B9C4A75490090012003F0FFF89248AC
:10164000007800F00200022810D16F488F49904ABC
:10165000904BCDE90132CDE903108F488F4B904A72
:1016600069490090022003F0E9F80FE066488749D5
:10167000874A884BCDE90132CDE903108648874B74
:10168000884A61490090022003F0D8F87E4800782B
:1016900000F00400042810D15B487C497C4A7D4B53
:1016A000CDE90132CDE903107F487C4B7C4A564995
:1016B0000090032003F0C2F80FE053487349744AC6
:1016C000744BCDE90132CDE903107748734B754A6D
:1016D0004D490090032003F0B1F86B48007800F00A
:1016E0000800082810D148486849694A694BCDE983
:1016F0000132CDE903106D48684B694A42490090B8
:10170000042003F09BF838E23F486049604A614B8F
:10171000CDE90132CDE903106448604B614A3A4992
:101720000090042003F08AF827E236480078022867
:101730005FD13348007801283AD15348007810F03F
:10174000010F1AD05048007800F0FE004E49087092
:101750002D484E494E4A4F4BCDE90132CDE9031099
:101760005C484E4B4F4A29490090012003F066F82F
:1017700059A1214803F0F3FBFFE14348007840F012
:1017800001004149087020484049414A414BCDE998
:101790000132CDE903104F48404B414A1B490090AC
:1017A000012003F04BF851A1134803F0D8FBE4E10A
:1017B0001348007802281DD13348007800F0020059
:1017C000022818D13048007800F0FD002E4908703A
:1017D0000D482E492E4A2F4BCDE90132CDE9031099
:1017E0002D482E4B2F4A09490090022003F026F87D
:1017F00086E085E1A4E088E000380140390500205A
:101800003A0500203B05002098050020A00200209A
:10181000D1A1D4F1B5DAB6FEC0E0CAFDBEDDCAC7BB
:10182000B7F1B7A2CBCDA3A10A000000D1A1D4F19A
:10183000B5DAC8FDC0E0CAFDBEDDCAC7B7F1B7A2C0
:10184000CBCDA3A10A000000D1A1D4F1B5DACBC45D
:10185000C0E0CAFDBEDDCAC7B7F1B7A2CBCDA3A118
:101860000A000000C8B7C8CFCAFDBEDDB7A2CBCD05
:10187000D1A1D4F1A3ACBFAACABCB7A2CBCDCAFD3B
:10188000BEDDA3A10A0000002205002020020020E6
:1018900000020020E0010020800100204001002023
:1018A0008002002060020020A0010020C001002072
:1018B0002001002000010020D1A1D4F1B5DAD2BB73
:1018C000C0E0CAFDBEDDCAC7B7F1B7A2CBCDA3A1A8
:1018D0000A00000060010020B5DAD2BBC0E0CAFDFA
:1018E000BEDDB2BBB7A2CBCDA3A10A00B5DAD2BB95
:1018F000C0E0CAFDBEDDB7A2CBCDA3A10A000000A7
:10190000F4A1F94803F02BFB37E1F848007840F0E8
:101910000200F6490870F648F649F74AF74BCDE958
:101920000132CDE90310F648F64BF74AF74900902B
:10193000022002F083FFF6A1EB4803F010FB1CE14C
:10194000F848007803283BD1E848007800F004000C
:1019500004281AD1E548007800F0FB00E34908703C
:10196000E348E449E44AE54BCDE90132CDE903100F
:10197000ED48E44BED4AE5490090032002F05EFF9C
:10198000EBA1D94803F0EBFAF7E0D848007840F033
:101990000400D6490870D648D649D74AD74BCDE976
:1019A0000132CDE90310E048D64BD74AD749009021
:1019B000032002F043FFE3A1CB4803F0D0FADCE0C0
:1019C000D848007804283BD1C848007800F00800C7
:1019D00008281AD1C548007800F0F700C3490870FC
:1019E000C348C449C44AC54BCDE90132CDE903100F
:1019F000D948C44BCD4AC5490090042002F01EFFCF
:101A0000D6A1B94803F0ABFAB7E0B848007840F087
:101A10000800B6490870B648B649B74AB74BCDE991
:101A20000132CDE90310CC48B64BB74AB749009014
:101A3000042002F003FFCEA1AB4803F090FA9CE033
:101A4000B848007805289FD10420CE4908700120AD
:101A5000B449087002F0BBFEA54801460246CA4BD5
:101A6000CDE90132CDE90310C848C94BA14AA249CA
:101A70000090012002F0E2FEC6A19B4803F06FFA3D
:101A80009A48007810F0010F04D0C7A1964803F0DF
:101A900066FA03E0C9A1944803F061FA934800781C
:101AA00000F00200022804D1CAA18F4803F057FABF
:101AB00003E0CDA18C4803F052FA8C48007800F086
:101AC0000400042804D1CEA1874803F048FA03E0BB
:101AD000D0A1854803F043FA8448007800F008005C
:101AE000082804D1D1A1804803F039FA03E0D4A139
:101AF0007D4803F034FAD8A17B4803F030FA3CE08B
:101B0000DA480078032838D101209E4908700F2058
:101B10007649087002F05BFE012082490870744823
:101B2000D349D44A734BCDE90132CDE90310724851
:101B3000D14BD24A75490090012002F07FFE6C48DB
:101B40009249934A6B4BCDE90132CDE903106A48C3
:101B5000C94BCA4A66490090022002F06FFEC8498C
:101B6000614803F0FCF9C64914315F4803F0F7F906
:101B7000C3492C315C4803F0F2F954E30020C14919
:101B80000870C14908800120C049087078E200202F
:101B9000BF490870C822BD480178BE4802F004FD64
:101BA0000020BD49087061E2B7480088401CB64972
:101BB00008800020B94908704EE2B74800780D212E
:101BC00001EB8000B349085C0090B34800780C2119
:101BD00001EB8000AF49085C0490AF4800780B210E
:101BE00001EB8001AB48405C0390AB4800780A21D0
:101BF00001EB8000A749085C02900146A6480078E6
:101C0000DDE9032303F01AFA00209E49087021E061
:101C10009C480078401C9B490870642003F05CF8E5
:101C200098480078642815DD9DA12F4803F097F9A6
:101C300002F0CDFD2E480146A44AA54BCDE9013264
:101C4000CDE903105148524B2A4A2B4900900220FB
:101C500002F0F4FD8E4800780028D9D000208C498D
:101C600008709CA1204803F07AF90020A049087070
:101C700011E0A0489E490978405C014604901A484A
:101C800003F0BEF99CA1184803F069F99848007860
:101C9000401C97490870964800780628E9DB20A187
:101CA000114803F05CF97C48007803F0F9F9002052
:101CB000744908703AE173480078401C7149087013
:101CC0000A2003F009F86F480078642800DD15E168
:101CD0002CE10000B5DAB6FEC0E0CAFDBEDDB2BB45
:101CE000B7A2CBCDA3A10A000038014022050020F5
:101CF000980500202002002000020020E0010020C2
:101D0000800100204001002080020020A00200206D
:101D1000B5DAB6FEC0E0CAFDBEDDB7A2CBCDA3A149
:101D20000A0000003A050020A00100206002002007
:101D3000B5DAC8FDC0E0CAFDBEDDB2BBB7A2CBCDEF
:101D4000A3A10A00B5DAC8FDC0E0CAFDBEDDB7A296
:101D5000CBCDA3A10A000000C0010020B5DACBC49E
:101D6000C0E0CAFDBEDDB2BBB7A2CBCDA3A10A00C5
:101D7000B5DACBC4C0E0CAFDBEDDB7A2CBCDA3A10E
:101D80000A00000039050020400200202001002048
:101D900000010020B7A2CBCDCAFDBEDDC1D0B1EDA0
:101DA000A3A1A3A1A3A10A002020B5DA31C0E0CAF3
:101DB000FDBEDDB7A2CBCDA3A10A00002020B5DA7D
:101DC00031C0E0CAFDBEDDB2BBB7A2CBCDA3A10A34
:101DD000000000002020B5DA32C0E0CAFDBEDDB749
:101DE000A2CBCDA3A10A00002020B5DA32C0E0CA00
:101DF000FDBEDDB2BBB7A2CBCDA3A10A000000009F
:101E00002020B5DA33C0E0CAFDBEDDB7A2CBCDA33A
:101E1000A10A00002020B5DA33C0E0CAFDBEDDB261
:101E2000BBB7A2CBCDA3A10A000000002020B5DAE9
:101E300034C0E0CAFDBEDDB7A2CBCDA3A10A00002D
:101E40002020B5DA34C0E0CAFDBEDDB2BBB7A2CBFC
:101E5000CDA3A10A00000000BFAACABCB7A2CBCD87
:101E6000D1A1D4F1CAFDBEDDA3A10A003B0500202B
:101E7000E0000020C0000020000000202000002022
:101E80000C07000828050020440500202505002037
:101E90002E0500202D0600204305002023050020EC
:101EA00043523935D0B4C8EBB7B5BBD8B3ACCAB11F
:101EB000A3ACCFB5CDB3B4EDCEF3A3A1A3A1A3A1A1
:101EC000D6D8C6F4A3A1A3A1A3A10A008003002031
:101ED000A0030020435239352DD0B4C8EBC3FCC158
:101EE000EEB7B5BBD8CAFDBEDDCEAAA3BA000000CE
:101EF00026050020B805002020200000CBA1D648F0
:101F000003F02DF802F063FCD4480146D44AD54BC7
:101F1000CDE90132CDE90310D348D44BD44AD54999
:101F20000090022002F08AFC00BFFEE7D248007851
:101F300000283FF4C0AE0020CF490870CFA1C648AA
:101F400003F00DF80020D449087012E0D348D249BC
:101F50000978405C01460490BF4803F051F8AFF2A5
:101F60006801BD4802F0FBFFCB480078401CCA491D
:101F70000870C94800780628E8DBAFF25C21B64853
:101F800002F0EDFFC5488178C54800780A2202EBCF
:101F90008000C44A105C814223D1C048C178C04847
:101FA00000780B2202EB8000BE4A105C814218D1FF
:101FB000BA480179BA4800780C2202EB8000B94A8D
:101FC000105C81420DD1B5484179B54800780D22A9
:101FD00002EB8000B34A105C814202D11420B24966
:101FE0000870B14800780F281BDDB04801889A4876
:101FF00002F0C2FFAEA1984802F0B1FF02F0E7FB89
:1020000096480146964AAE4BCDE90132CDE9031020
:102010009548964B964A97490090022002F00EFC94
:1020200015E0A8A18C4802F09AFF02F0D0FB8B4883
:1020300001468B4A8B4BCDE90132CDE903108A482A
:102040008A4B8B4A8B490090022002F0F7FB96489E
:102050000078401C94490870934800780A28FFF6DD
:10206000ACAD8F480078401C8D4908708C480078D2
:102070002E28FFF699AD9E480078401C9C490870B8
:102080009B4800782728FFF682AD03209949087005
:1020900002F09DFB01209849087098A16E4802F05B
:1020A0005EFFA048007810F0010F14D06B48704913
:1020B000704A9D4BCDE90132CDE903109B489C4B02
:1020C0009C4A9D490090012002F0B8FB9B49624860
:1020D00002F045FF14E061486549664A924BCDE93C
:1020E0000132CDE903109148914B954A92490090F5
:1020F000012002F0A3FB91491831574802F02FFF4D
:102100008848007800F00200022815D15348584949
:10211000584A854BCDE90132CDE903108948844BFB
:10212000844A4E490090022002F088FB83493431F2
:10213000494802F014FF14E048484D494D4A7A4B93
:10214000CDE90132CDE903107E48794B7C4A434901
:102150000090022002F072FB784948313E4802F0BC
:10216000FEFE7048007800F00400042815D13B48BA
:102170003F49404A6C4BCDE90132CDE9031072482A
:102180006B4B6C4A35490090032002F057FB6B49BA
:102190006431314802F0E3FE14E030483449354AF6
:1021A000614BCDE90132CDE903106748604B644AC9
:1021B0002A490090032002F041FB6049783126480B
:1021C00002F0CDFE5748007800F00800082815D12D
:1021D00022482749274A544BCDE90132CDE9031063
:1021E0005A48534B534A1D490090042002F026FBE5
:1021F00052499431184802F0B2FE14E017481C49C5
:102200001C4A494BCDE90132CDE903104F48484BF8
:102210004B4A12490090042002F010FB4749A831B4
:102220000D4802F09CFE00BFFEF769B943523935F4
:10223000B6C1C8A1B7B5BBD8B3ACCAB1A3ACCFB512
:10224000CDB3B4EDCEF3A3A1A3A1A3A1D6D8C6F478
:10225000A3A1A3A1A3A10A00003801409805002072
:1022600080030020A00300202001002000010020A6
:1022700020020020000200202E05002043523935A4
:102280002DB6C1C8A1C3FCC1EEB7B5BBD8CAFDBE4F
:10229000DDCEAAA3BA00000026050020B805002064
:1022A000430500202D0600202305002044050020C2
:1022B000CAFDBEDDD0B4C8EBD5FDC8B7A3A10A00E6
:1022C00060030020CAFDBEDDD0B4C8EBD2ECB3A3DE
:1022D000A3ACB6E0B4CED6D8CAD4B6BCD2ECB3A3C5
:1022E000A3ACD6D8D0C2C6F4B6AFA3A10A000000F2
:1022F00025050020390500203A050020CAFDBEDD75
:10230000B7A2CBCDCDEAB3C9A3ACBDF8C8EBCAFD2B
:10231000BEDDB7A2CBCDD1A1D4F1C4A3CABDA3A1C8
:102320000A00000022050020E001002060010020DA
:102330004001002080020020A0020020F40B0008D1
:102340006002002080010020A0010020C0010020C8
:10235000704700BFFEE700BFFEE700BFFEE700BF1B
:10236000FEE7704770477047704700000CB50020CB
:10237000019000906B48006840F480306949086023
:1023800000BF6848006800F4003000900198401CCD
:102390000190009818B90198B0F5A06FF1D161488B
:1023A000006810F4003F02D00120009001E00020FE
:1023B00000900098012842D15B48006840F010006E
:1023C000594908600846006820F003000860084684
:1023D000006840F002000860524840685149486077
:1023E0000846406848600846406840F4806048609D
:1023F0000846406820F47C1048600846406840F475
:10240000E81048600846006840F08070086000BF2F
:102410004448006810F0007FFAD04248406820F03D
:102420000300404948600846406840F002004860A8
:1024300000BF3C48406800F00C000828F9D10CBDF2
:1024400010B5FFF793FF10BD10B53648006840F097
:102450000100344908600846406834490840314961
:10246000486008460068324908402E49086008461E
:10247000006820F4802008600846406820F4FE00D0
:1024800048604FF41F008860FFF7DAFF4FF00060EC
:102490002849086010BD10B5002100200022214B02
:1024A0005B6803F00C0121B1042906D0082928D16A
:1024B00007E0214B214C236027E01F4B1F4C23607A
:1024C00023E0184B5B6803F47010164B5B6803F451
:1024D0008032022303EB904022B9194B4343174C3F
:1024E00023600DE00F4B5B6813F4003F04D0144BE6
:1024F0004343124C236003E00F4B43430F4C2360D4
:1025000003E00D4B0D4C236000BF00BF054B5B6823
:10251000C3F303130B4CE15C084B1B68CB40074C27
:10252000236010BD00100240002002400000FFF8B0
:10253000FFFFF6FE08ED00E000127A0048050020DB
:1025400000093D004C05002008B50121102003F0D2
:1025500023FB4FF4E070ADF8000048208DF8030035
:1025600069461E4803F062F808BD10B51C480078A3
:1025700000B31C48006828B11B48006810B11B4814
:102580000068B8B90A2002F0A7FB002014490870BF
:102590000A2002F0A1FB1348006808B9012010BD11
:1025A0001148006808B90220F9E71048006878B9B6
:1025B0000320F4E70B480068012809D10A480068A5
:1025C000012805D109480068012801D10449087093
:1025D000322002F081FB0020E1E700000010014002
:1025E0005C05002018012242200122421C012242E7
:1025F00010B5044600205B49087001215A4804F0D8
:10260000C3FB2146584804F079FB0121564804F0E9
:10261000E1F810BD10B50021534804F0DBF810BDFF
:102620000EB50121062003F0C4FA4FF49670ADF800
:1026300004004FF4E150ADF800000020ADF80600B2
:102640001020ADF802006946474803F067FD0021FD
:10265000454804F017FB0121434804F095FB012293
:102660001146414804F0D1F84FF47A70ADF80400F7
:102670004820ADF800000020ADF80600ADF80200DB
:1026800069463A4803F04AFD0021384804F0FAFA56
:102690000121364804F078FB01221146334804F04A
:1026A000B4F80021304804F095F800212F4804F0D8
:1026B00091F80EBD08B54FF4A06002F0E9FE1D20B0
:1026C0008DF8000000208DF801008DF80200012037
:1026D0008DF80300684602F0E0FE1E208DF8000031
:1026E00002208DF801008DF8020001208DF8030012
:1026F000684602F0D2FE08BD38B504461C48048086
:102700001E208DF8000000208DF801008DF80200D9
:1027100001208DF80300684602F0BFFE0121134836
:1027200004F032FB0021114804F0E8FA01210F48BF
:1027300004F050F800BF0E4800880028FBD10021AB
:102740000A4804F047F81E208DF8000002208DF89A
:1027500001008DF8020001208DF80300684602F0A8
:102760009CFE38BD24050020000400400008004005
:102770005E050020014601200870002088700320BB
:1027800048700020704700B587B0FE4803F06CFA2F
:102790000121042003F000FA0121080303F0FCF9F1
:1027A000E020ADF8180003208DF81A0018208DF8ED
:1027B0001B0006A9F44802F039FFE021F24802F0BC
:1027C000E0FF1020ADF818008DF81B0006A9EE48B8
:1027D00002F02CFF1021EC4802F0D3FF01A803F017
:1027E000F8FA0020ADF804004FF48270ADF806004E
:1027F0000020ADF808000220ADF80A000120ADF875
:102800000C004002ADF80E003820ADF8100000209A
:10281000ADF812000720ADF8140001A9D94803F063
:1028200049FA0121D74803F0EAFA07B000BD10B514
:10283000FFF7A9FF10BD10B504461021D24802F0E1
:10284000A2FF052002F048FA0021CE4801F0F7FC73
:102850002146CC4801F0F3FC1021CB4802F091FF57
:10286000022002F039FA10BD70B504461021C648A6
:1028700002F089FF052002F02FFA0021C14801F083
:10288000DEFC002507E0681CC6B2A15DBD4801F072
:10289000D6FC681CC5B26078A842F4DC1021BA48A6
:1028A00002F06FFF022002F017FA70BD70B5102120
:1028B000B54802F068FF012002F00EFA002522E080
:1028C0000321B04801F0BBFC0446B0A1B54802F0BA
:1028D00046FB2146B34802F093FBB3A1B14802F096
:1028E0003EFB102C09DA04F00800082805D1C825A1
:1028F000AEA1AC4802F033FB03E0AFA1A94802F05F
:102900002EFB681CC5B2642DDADB10219E4802F054
:1029100038FF0A2002F0E0F9962D01DD002070BD9D
:102920000120FCE770B504461021974802F02BFF08
:10293000012002F0D1F90221924801F080FCFF2130
:10294000904801F07CFC2070641CFF218D4801F050
:1029500076FC2070002507E0641CFF21894801F007
:102960006EFC2070681CC5B26078A842F4DC1021AF
:10297000854802F006FF70BD10B51021824802F0B4
:1029800002FF012002F0A8F900217E4801F057FC67
:1029900004468CA1834802F0E2FA2146814802F005
:1029A0002FFB81A17F4802F0DAFA5521754801F02A
:1029B00046FC044689A17B4802F0D1FA21467948B9
:1029C00002F01EFB78A1774802F0C9FA10216E4888
:1029D00002F0D7FE0A2002F07FF9FFF767FF0446F6
:1029E000002C2CD171A16F4802F0B9FA1021664871
:1029F00002F0C9FE012002F06FF90221614801F0E6
:102A00001EFC04467BA1674802F0A9FA21466548EE
:102A100002F0F6FAFF215B4801F011FC04467BA1AD
:102A2000604802F09CFA21465E4802F0E9FA102163
:102A3000554802F0A6FE0A2002F04EF903E05EA11E
:102A4000584802F08CFA60B210BD70B504461021EF
:102A50004D4802F098FE052002F03EF90021494859
:102A600001F0EDFB05466FA14E4802F078FA2946C9
:102A70004C4802F0C5FA4CA14A4802F070FA0A200C
:102A800002F02AF901213F4801F0D9FB05466CA16B
:102A9000444802F064FA2946424802F0B1FA42A1E1
:102AA000404802F05CFA0A2002F016F9002135488D
:102AB00001F0C5FB054669A13A4802F050FA2946E3
:102AC000384802F09DFA38A1364802F048FA0A2048
:102AD00002F002F910212C4802F053FE052002F00A
:102AE000FBF8FFF7E3FE0546002D49D110212648EB
:102AF00002F049FE052002F0EFF80221214801F022
:102B00009EFB05465DA1274802F029FA2946254883
:102B100002F076FA24A1234802F021FAFF21194895
:102B200001F08DFB20705CA11E4802F018FA21789C
:102B30001C4802F065FA5AA11A4802F010FA012066
:102B400002F0CAF8641CFF210E4801F078FB2070E7
:102B50002178144802F054FA51A1124802F0FFF90A
:102B6000012002F0B9F8641CFF21064801F067FB60
:102B7000207021780B4802F043FA49A1094891E0FE
:102B800098E100000030014000080140B7A2CBCD21
:102B9000C3FCC1EED7D6307830332CB7B5BBD8A341
:102BA000BA000000003801400A000000506F6C6C51
:102BB000D5FDC8B70A000000506F6C6CB2BBD5FDE4
:102BC000C8B70A00B7A2CBCDC3FCC1EED7D63078C8
:102BD00030302CB7B5BBD8A3BA000000B7A2CBCD1C
:102BE000C3FCC1EED7D6307835352CB7B5BBD8A3EA
:102BF000BA000000B7A2CBCDC3FCC1EED7D6307867
:102C000030322CB7B5BBD8A3BA000000B7A2CBCDE9
:102C1000C3FCC1EED7D6307866662CB7B5BBD8A357
:102C2000BA000000B7A2CBCDC3FCC1EEC7B0B5BCA3
:102C30002030783030202020B7B5BBD8D6B53A0048
:102C4000B7A2CBCD49444EC3FCC1EE203078303121
:102C5000202020B7B5BBD8D6B53A0000B7A2CBCD5F
:102C600049444EC3FCC1EEB3A4B6C820307830301E
:102C7000202020B7B5BBD8D6B53A0000B7A2CBCD3F
:102C8000B6C1C8A1C3FCC1EE20307830322020206C
:102C9000B7B5BBD8D6B53A0049444E3A000000005B
:102CA0000900000002F05BF9012002F015F8641C35
:102CB000FF21FE4801F0C3FA20702178FC4802F0A1
:102CC0009FF9AFF22401FA4802F049F9012002F01D
:102CD00003F8641CFF21F54801F0B1FA2070217857
:102CE000F34802F08DF9AFF24801F14802F037F9EC
:102CF000012001F0F1FF641CFF21EC4801F09FFA74
:102D000020702178EA4802F07BF9AFF26C01E848C4
:102D100002F025F9012001F0DFFF641CFF21E348E8
:102D200001F08DFA20702178E14802F069F9AFF2E4
:102D30009001DF4802F013F9012001F0CDFF641C7F
:102D4000FF21DA4801F07BFA20702178D84802F0A0
:102D500057F9AFF2B401D64802F001F9012001F0B1
:102D6000BBFF641CFF21D14801F069FA2070217873
:102D7000CF4802F045F9AFF2D801CD4802F0EFF8A4
:102D8000012001F0A9FF641CFF21C84801F057FA97
:102D900020702178C64802F033F9AFF2FC01C44834
:102DA00002F0DDF8012001F097FF641CFF21BF480D
:102DB00001F045FA20702178BD4802F021F9AFF208
:102DC0002011BB4802F0CBF8012001F085FF641C04
:102DD000FF21B64801F033FA20702178B44802F0A0
:102DE0000FF9AFF24411B24802F0B9F8012001F036
:102DF00073FF641CFF21AD4801F021FA2070217897
:102E0000AB4802F0FDF8AFF26811A94802F0A7F84C
:102E1000012001F061FF641CFF21A44801F00FFABA
:102E200020702178A24802F0EBF8AFF28C11A04894
:102E300002F095F8012001F04FFF641CFF219B4830
:102E400001F0FDF920702178994802F0D9F8AFF22D
:102E5000B011974802F083F8012001F03DFF641C97
:102E6000FF21924801F0EBF920702178904802F0A0
:102E7000C7F8AFF2D4118E4802F071F8012001F0CA
:102E80002BFF641CFF21894801F0D9F920702178BB
:102E9000874802F0B5F8AFF2F811854802F05FF804
:102EA000012001F019FF1021824802F06AFC052080
:102EB00001F012FF70BD10B508217E4802F061FCE0
:102EC000012001F009FF08217A4802F05CFC012092
:102ED00001F002FF0821774802F053FC10BD10B545
:102EE000044600BF0221714803F00DF80028F9D014
:102EF00055216E4802F0B4FF00BF01216B4803F07A
:102F000002F80028F9D0694802F0ACFF20700020D8
:102F100010BD0246D2B20878FE2801D101207047C8
:102F2000082A5AD008DC012A13D0022A17D0042A12
:102F300024D0072A64D145E0092A59D00A2A5DD055
:102F4000552A5DD10878552801D10020E7E74020B7
:102F5000E5E7087808B90020E1E74020DFE70878D6
:102F600020B1822804D0832806D103E00020D6E7D0
:102F70004020D4E74020D2E74020D0E708788038CE
:102F80000F281DD2DFE800F0081C1C1C1C1C0A0CBA
:102F90000E10121416181A000020C0E74020BEE7D9
:102FA0004020BCE74020BAE74020B8E74020B6E721
:102FB0004020B4E74020B2E74020B0E74020AEE731
:102FC0004020ACE7087810B1822804D101E000204D
:102FD000A5E74020A3E74020A1E7087810B18228A8
:102FE00004D101E000209AE7402098E7402096E7CE
:102FF000087808B9002092E7402090E740208EE74B
:1030000001208CE730B504460D46207802280BD10C
:1030100020782946FFF77DFF012803D1A07840B230
:103020002549C870002030BD0020FCE710B51021F4
:10303000204802F0A8FB01211C4801F000F91021F2
:103040001C4802F09EFB032001F046FEFFF733FF11
:103050000A2001F041FE10BD2DE9F041064634463C
:1030600016A1134801F07BFF1021124802F08BFBE0
:10307000052001F031FE1B4801780C4801F0DFF813
:10308000804619A10A4801F06AFF4146084801F04C
:10309000B7FF1FA1064801F062FF012001F01CFEEE
:1030A00010484178014801F0CAF833E0003001408F
:1030B00000380140000801402905002053657420B4
:1030C000757020546865204352393548462773206F
:1030D00070726F746F636F6C20746F203135363986
:1030E000330D0A006005002053656E642054686546
:1030F00020436F6E74726F6C204279746520307853
:103100003030202052657475726E2D2D0000000045
:103110000D0A00008046DFA1E84801F020FF41468B
:10312000E64801F06DFFAFF21801E44801F017FF27
:10313000012001F0D1FDE2488178E24801F07FF8FA
:103140008046E1A1DD4801F00AFF4146DB4801F07D
:1031500057FFAFF24401D94801F001FF012001F00F
:10316000BBFDD748C178D74801F069F88046E0A197
:10317000D24801F0F4FE4146D04801F041FFAFF2E1
:103180007001CE4801F0EBFE012001F0A5FDCC4816
:103190000179CC4801F053F88046E1A1C74801F01D
:1031A000DEFE4146C54801F02BFFAFF29C01C3484B
:1031B00001F0D5FE012001F08FFD1021E44802F05E
:1031C000E0FAFFF773FB8046B8F1000F78D1E1A178
:1031D000BA4801F0C4FE012001F07EFDE0A1B7482D
:1031E00001F0BDFE012001F077FD1021D84802F06A
:1031F000CAFA052001F070FD0221B24801F01FF863
:103200008046DFA1AD4801F0AAFE4146AB4801F07F
:10321000F7FED2A1A94801F0A2FE012001F05CFD59
:10322000FF21A84801F00BF82070DFA1A34801F0AE
:1032300096FE2178A14801F0E3FEC8A19F4801F065
:103240008EFE012001F048FD641CFF219D4800F026
:10325000F6FF20702778DEA1984801F080FE2178E3
:10326000964801F0CDFEBDA1944801F078FE012002
:1032700001F032FD3FB9DFA1904801F070FE01205E
:1032800001F02AFD50E0EAA18C4801F068FE2946D1
:103290008A4801F0B5FEE9A1884801F060FE0120EE
:1032A00001F01AFD00253DE0641CFF21854800F077
:1032B000C6FF20702DB9E7A1804801F050FE24E040
:1032C00037E0012D04D1EEA17C4801F048FE1CE05E
:1032D000022D04D1F5A1794801F041FE15E0FEA1CF
:1032E000764801F03CFEE81CC1B2744801F088FE4B
:1032F000FBA1724801F033FE681CC1B26F4801F0B7
:103300007FFEF2A16D4801F02AFE21786B4801F0A2
:1033100077FE92A1694801F022FE012001F0DCFC59
:10332000681CC5B2BD42BFDB1021894802F029FAF2
:1033300006E0F2A1614801F012FE012001F0CCFC90
:10334000022001F0C9FC34462078BDE8F0812DE967
:10335000F041044610217E4802F015FA052001F0E4
:10336000BBFCE6B227120021564800F068FF054674
:10337000AFF28C21514801F0F2FD29464F4801F08F
:103380003FFE76A14D4801F0EAFD012001F0A4FCCA
:1033900004214C4800F053FF0546E4A1474801F0E2
:1033A000DEFD2946454801F02BFE6CA1434801F0A3
:1033B000D6FD012001F090FC0421424800F03FFFBF
:1033C0000546E6A13D4801F0CAFD29463B4801F00B
:1033D00017FE62A1394801F0C2FD012001F07CFC1A
:1033E0000A21384800F02BFF0546E4A1334801F0DC
:1033F000B6FD2946314801F003FE58A12F4801F0DF
:10340000AEFD012001F068FC20212E4800F017FFDE
:103410000546E6A1294801F0A2FD2946274801F00A
:10342000EFFD4EA1254801F09AFD012001F054FC6A
:103430003146244800F003FF0546EAA11F4801F089
:103440008EFD31461D4801F0DBFD3EA11B4801F019
:1034500086FD2946194801F0D3FD40A1174801F027
:103460007EFD012001F038FC3946164800F0E7FEE9
:103470000546DCA1114801F072FD39460F4801F004
:10348000BFFD30A10D4801F06AFD29460B4801F04F
:10349000B7FDBDE153656E642054686520436F6DD0
:1034A0006D616E6420436F64652030783032202077
:1034B00052657475726E2D2D0000000000380140B9
:1034C000600500200030014053656E64205468653B
:1034D000204C656E677468206F66204461746120BB
:1034E00030783032202052657475726E2D2D0000B8
:1034F00053656E64205468652050726F746F636FFB
:103500006C20436F646520666F7220313536393325
:103510002030783031202052657475726E2D2D0068
:1035200053656E64205468652050726F746F636FCA
:103530006C277320706172616D65746572732030E1
:10354000783031202052657475726E2D2D00000088
:1035500000080140504F4C4CD5FDC8B70D0A000083
:10356000BFAACABCB6C1C8A1C9E8D6C3CDA8D1B646
:10357000D0ADD2E9B5C4B7B5BBD8D6B50D0A0000F9
:1035800053656E64205265616420436F6E74726F80
:103590006C20427974652030783032202052657476
:1035A00075726E2D2D0000005468652031737420F3
:1035B00052657475726E2044617461205468617440
:1035C0002069732052657370436F6465202D2D0050
:1035D00054686520326E642052657475726E2044A2
:1035E0006174612054686174206973204C454E20D9
:1035F0002D2D000054686520526573706F6E7365E1
:103600002773204C656E67746820697320302C54D2
:1036100068657265206973206E6F20446174612053
:10362000666F722052656365697665210D0A000038
:1036300054686572652068617320000020446174DD
:103640006120666F722052656365697665210D0A97
:103650000000000054686520337264206F662052B9
:103660006573706F6E736544617461206973205473
:103670006865203173742044415441202D2D000091
:1036800054686520347468206F6620526573706FCB
:103690006E736544617461206973205468652032DB
:1036A0006E642044415441202D2D00005468652053
:1036B000357468206F6620526573706F6E73654451
:1036C00061746120697320546865203372642044FA
:1036D000415441202D2D0000546865200000000059
:1036E0007468206F6620526573706F6E73654461F5
:1036F0007461206973205468652000002A2A2A2AF0
:103700002A506F6C6C204572726F7220666F722047
:10371000534554205448452050524F544F434F4C2A
:10372000212A2A2A2A2A0D0A0000000053656E6405
:10373000205468652053656E6452656365697665DB
:1037400020436F6D6D616E6420203078303420200E
:1037500052657475726E2D2D0000000053656E6405
:1037600020546865204C454E20203078303420208D
:1037700052657475726E2D2D0000000053656E64E5
:1037800020546865204D3234585827732052657193
:103790007565737420466C61672020307830412055
:1037A0002052657475726E2D2D00000053656E6495
:1037B00020546865204D32345858277320436F6D6C
:1037C0006D616E64205265616453696E676C654219
:1037D0006C6F636B20307832302052657475726E76
:1037E0002D2D000053656E6420546865204D3234E1
:1037F0005858277320436F6D6D616E642052656168
:103800006453696E676C65426C6F636B20000000E7
:10381000AFF2B821FD4801F0A2FB012001F05CFAF3
:103820001021FB4801F0ADFF052001F055FAFFF72C
:103830003DF80546002D6DD1AFF2E821F34801F0C7
:103840008EFB012001F048FAF2A1F04801F087FB5D
:10385000012001F041FA1021ED4801F094FF05200C
:1038600001F03AFA0221F54800F0E9FC0546AFF212
:10387000F021E64801F073FB2946E44801F0C0FB63
:10388000EDA1E24801F06BFB012001F025FAFF21D8
:10389000EA4800F0D4FC0546AFF2F421DB4801F021
:1038A0005EFB2946D94801F0ABFBE3A1D74801F004
:1038B00056FB012001F010FAFF21E04800F0BFFCA8
:1038C0000546DFA1D14801F04AFB2946CF4801F067
:1038D00097FBD9A1CD4801F042FB012001F0FCF992
:1038E000FF21D64800F0ABFC0546DFA1C74801F038
:1038F00036FB2946C54801F083FBCFA1C34801F040
:103900002EFB012001F0E8F9FF21CC4800F097FCE4
:10391000054600E08DE0DEA1BC4801F020FB294611
:10392000BA4801F06DFBC4A1B84801F018FB0120B2
:1039300001F0D2F9FF21C14800F081FC0546DEA16B
:10394000B24801F00CFB2946B04801F059FBBAA17E
:10395000AE4801F004FB012001F0BEF9FF21B74899
:1039600000F06DFC0546DEA1A84801F0F8FA2946F2
:10397000A64801F045FBB0A1A44801F0F0FA0120EF
:1039800001F0AAF9FF21AD4800F059FC0546DEA17F
:103990009E4801F0E4FA29469C4801F031FBA6A1BB
:1039A0009A4801F0DCFA012001F096F9FF21A348C2
:1039B00000F045FC0546DEA1944801F0D0FA294606
:1039C000924801F01DFB9CA1904801F0C8FA01202B
:1039D00001F082F9FF21994800F031FC0546DEA193
:1039E0008A4801F0BCFA2946884801F009FB92A1F7
:1039F000864801F0B4FA012001F06EF9FF218F48EA
:103A000000F01DFC0546DEA1804801F0A8FA294619
:103A10007E4801F0F5FA88A17C4801F0A0FA012067
:103A200001F05AF910217A4801F0ABFE052001F0AF
:103A300053F9BDE8F08110B51021754801F0A3FEDF
:103A4000052001F049F900217C4800F0F8FB04460C
:103A5000AFF66C116D4801F082FA21466B4801F017
:103A6000CFFA75A1694801F07AFA012001F034F922
:103A70000421724800F0E3FB0446AFF25031634882
:103A800001F06DFA2146614801F0BAFA6AA15F4877
:103A900001F065FA012001F01FF90321674800F0E9
:103AA000CEFB0446C0A1594801F059FA21465748B7
:103AB00001F0A6FA60A1554801F051FA012001F089
:103AC0000BF926215D4800F0BAFB0446BEA14F4821
:103AD00001F045FA21464D4801F092FA56A14B48B3
:103AE00001F03DFA012001F0F7F80121534800F000
:103AF000A6FB0446C0A1454801F031FA21464348DF
:103B000001F07EFA4CA1414801F029FA012001F0B0
:103B1000E3F80021494800F092FB0446C3A13B486A
:103B200001F01DFA2146394801F06AFA42A13748EE
:103B300001F015FA012001F0CFF81021344801F00E
:103B400020FE052001F0C8F8FEF7B0FE0446002C68
:103B50005BD1AFF200612D4801F001FA012001F0C4
:103B6000BBF8BDA1294801F0FAF9012001F0B4F831
:103B70001021274801F007FE052001F0ADF80221D1
:103B80002E4800F05CFB0446AFF20C611F4801F0C8
:103B9000E6F921461D4801F033FA27A11B4801F040
:103BA000DEF9012001F098F8FF21244800F047FBDE
:103BB0000446AFF20C61154801F0D1F921461348D3
:103BC00001F01EFA1CA1114801F0C9F9012001F011
:103BD00083F8FF21194800F032FB044618A10B4876
:103BE00001F0BDF92146094801F00AFA12A107487F
:103BF00001F0B5F9012001F06FF8FF210F4800F046
:103C00001EFB044618A1014834E14BE20038014094
:103C100000080140BFAACABCB6C1C8A14D32345881
:103C200058B5C45265616453696E676C65426C6FC8
:103C3000636BB7B5BBD8D6B50D0A000000300140A4
:103C400054686520322052657475726E2044617428
:103C50006120546861742069732052657370436FEA
:103C60006465202D2D0000005468652033205265C6
:103C70007475726E204461746120546861742069A7
:103C8000732052657370436F6465202D2D00000012
:103C900054686520342052657475726E20446174D6
:103CA0006120546861742069732052657370436F9A
:103CB0006465202D2D000000546865203520526574
:103CC0007475726E20446174612054686174206957
:103CD000732052657370436F6465202D2D000000C2
:103CE00054686520362052657475726E2044617484
:103CF0006120546861742069732052657370436F4A
:103D00006465202D2D000000546865203720526521
:103D10007475726E20446174612054686174206906
:103D2000732052657370436F6465202D2D00000071
:103D300054686520382052657475726E2044617431
:103D40006120546861742069732052657370436FF9
:103D50006465202D2D0000005468652039205265CF
:103D60007475726E204461746120546861742069B6
:103D7000732052657370436F6465202D2D00000021
:103D80005468652031302052657475726E2044612C
:103D900074612054686174206973205265737043A4
:103DA0006F6465202D2D000053656E642054686596
:103DB000204C454E202030783033202052657475D9
:103DC000726E2D2D0000000053656E6420546865EE
:103DD000204D3234585827732052657175657374BD
:103DE00020466C616720203078323620205265747E
:103DF00075726E2D2D00000053656E642054686549
:103E0000204D32345858277320436F6D6D616E64B6
:103E100020496E76656E746F72792030783031206B
:103E200052657475726E2D2D0000000053656E642E
:103E300020546865204D323458582773204D6173E3
:103E40006B204C656E6774682030783030202052CB
:103E5000657475726E2D2D00BFAACABCB6C1C8A10B
:103E60004D32345858B5C4554944B7B5BBD8D6B50A
:103E70000D0A000001F073F821468B4801F0C0F8EC
:103E8000AFF24C21884801F06AF8012000F024FFCD
:103E9000FF21864800F0D3F90446AFF20C21824896
:103EA00001F05DF82146804801F0AAF8AFF27821D0
:103EB0007D4801F054F8012000F00EFFFF217B48FF
:103EC00000F0BDF90446AFF21021774801F047F841
:103ED0002146754801F094F8AFF2A421724801F030
:103EE0003EF8012000F0F8FEFF21704800F0A7F92D
:103EF0000446AFF214216C4801F031F821466A48BB
:103F000001F07EF8AFF2D021674801F028F80120D7
:103F100000F0E2FEFF21654800F091F90446AFF29F
:103F20001821614801F01BF821465F4801F068F84C
:103F3000AFF2FC215C4801F012F8012000F0CCFE49
:103F4000FF215A4800F07BF90446AFF21C21564885
:103F500001F005F82146544801F052F8AFF228313B
:103F6000514800F0FCFF012000F0B6FEFF214F4851
:103F700000F065F90446AFF220214B4800F0EFFF56
:103F80002146494801F03CF8AFF25431464800F070
:103F9000E6FF012000F0A0FEFF21444800F04FF9A9
:103FA0000446AFF22421404800F0D9FF21463E48A4
:103FB00001F026F8AFF280313B4800F0D0FF01203D
:103FC00000F08AFEFF21394800F039F9044638A193
:103FD000354800F0C4FF2146334801F011F8AFF234
:103FE000A831314800F0BBFF012000F075FEFF2131
:103FF0002E4800F024F9044637A12B4800F0AFFF0B
:104000002146294800F0FCFFAFF2D431264800F0E9
:10401000A6FF012000F060FEFF21244800F00FF908
:10402000044637A1204800F09AFF21461E4800F0C0
:10403000E7FFAFF2FC311C4800F091FF012000F0D7
:104040004BFEFF21194800F0FAF8044636A1164845
:1040500000F085FF2146144800F0D2FFAFF228415E
:10406000114800F07CFF012000F036FEFF210F48D0
:1040700000F0E5F8044636A10B4800F070FF214639
:10408000094800F0BDFFAFF25041074800F067FF5C
:10409000012000F021FE1021374801F072FB0520BD
:1040A00000F01AFE10BD0000003801400030014051
:1040B0005468652031312052657475726E204461F8
:1040C0007461205468617420697320526573704371
:1040D0006F6465202D2D0000546865203132205218
:1040E000657475726E204461746120546861742037
:1040F00069732052657370436F6465202D2D000035
:104100005468652031332052657475726E204461A5
:104110007461205468617420697320526573704320
:104120006F6465202D2D00005468652031342052C5
:10413000657475726E2044617461205468617420E6
:1041400069732052657370436F6465202D2D0000E4
:104150005468652031352052657475726E20446153
:1041600074612054686174206973205265737043D0
:104170006F6465202D2D00000008014000B587B058
:10418000924801F071FD0121042001F005FD01219B
:10419000080301F001FDE020ADF8180003208DF8C0
:1041A0001A0018208DF81B0006A9894801F03EFA74
:1041B000E021874801F0E5FA1020ADF818008DF8ED
:1041C0001B0006A9824801F031FA1021804801F055
:1041D000D8FA1020ADF818008DF81B0006A97C480D
:1041E00001F024FA10217A4801F0CBFA01A801F07D
:1041F000F0FD0020ADF804004FF48270ADF8060029
:104200000020ADF808000220ADF80A000120ADF84A
:104210000C004002ADF80E003820ADF81000002070
:10422000ADF812000720ADF8140001A9674801F0AD
:1042300041FD0121654801F0E2FD07B000BD70B508
:1042400004460D4600BF0221204601F05CFE002816
:10425000F9D02946204601F003FE00BF0121204687
:1042600001F051FE0028F9D0204601F0FBFDC0B25C
:1042700070BD2DE9F04180460E4615461F46FF2DC4
:1042800001DDFF2000E028460546002406E0315D00
:104290004046FFF7D4FF3855601CC4B2AC42F6DB91
:1042A000BDE8F08110B5C0B004461021484801F0C7
:1042B0006AFA02214548FFF7C2FFFF214348FFF792
:1042C000BEFF20702078552802D10020607012E0D7
:1042D0002078FF2802D1002060700CE0FF213B48CD
:1042E000FFF7ADFF6070607828B16278A31C694663
:1042F0003648FFF7BEFF1021354801F042FA40B0C2
:1043000010BD10B5002447F23050FEF771F912E0ED
:1043100010212F4801F037FA03212C48FFF78FFFB7
:1043200003212A48FFF78BFF044604F0F80410210C
:10433000274801F026FA082C03D0264800780128E7
:10434000E6D1FEF767F923480078012800D110BDB7
:104350000020FCE710B5C0B0044610211C4801F055
:1043600012FA00211948FFF76AFF2078552804D176
:1043700055211648FFF763FF07E06078801CC2B242
:104380006B4621461148FFF774FF1021104801F0D9
:10439000F8F940B010BD70B505460C46FE202070FF
:1043A000002060702846FFF7D5FFFFF7AAFF18B17D
:1043B000FD202070002070BD2046FFF773FF2146CE
:1043C0002846FEF71FFE0020F5E700000030014000
:1043D000000801406605002000B587B0864801F05E
:1043E00043FC0121042001F0D7FB0121080301F067
:1043F000D3FBE020ADF8180003208DF81A00182038
:104400008DF81B0006A97D4801F010F9E0217B48DA
:1044100001F0B7F91020ADF818008DF81B0006A9BF
:10442000764801F003F91021744801F0AAF901A8B7
:1044300001F0CFFC0020ADF804004FF48270ADF81D
:1044400006000020ADF808000220ADF80A000120A7
:10445000ADF80C004002ADF80E003820ADF81000A9
:104460000020ADF812000720ADF8140001A9624841
:1044700001F020FC0121604801F0C1FC07B000BD43
:1044800010B5044621465C48FFF7D9FE10BD10B5B3
:1044900000241021594801F076F90520FFF7F0FFBC
:1044A000FF20FFF7EDFF04461021544801F069F9A1
:1044B000204610BD10B500BFFFF7E9FF10F0010F57
:1044C000FAD110BD10B5044610214C4801F05BF93B
:1044D00090214948FFF7B3FE00214748FFF7AFFEA0
:1044E00000214548FFF7ABFE00214348FFF7A7FE38
:1044F000FF214148FFF7A3FE2070641CFF213E48C6
:10450000FFF79DFE207010213C4801F03AF9002091
:1045100010BD10B51021394801F035F90620FFF71C
:10452000AFFF1021354801F02CF910BD10B5FFF791
:10453000F0FFFFF7BFFF1021304801F024F9C7203A
:10454000FFF79EFF10212D4801F01BF9FFF7B2FF86
:1045500010BD2DE9F04106460F4690463D02FFF79B
:10456000D8FF1021254801F00EF90220FFF788FF3F
:10457000C5F30740FFF784FFC5F30720FFF780FF6F
:10458000E8B2FFF77DFF002404E0305DFFF778FF1D
:10459000601C84B24445F8DB1021184801F0F1F8A2
:1045A000FFF788FFBDE8F0812DE9F04106460F4690
:1045B00090463D021021114801F0E5F80320FFF775
:1045C0005FFFC5F30740FFF75BFFC5F30720FFF769
:1045D00057FFE8B2FFF754FF002405E0FF20FFF784
:1045E0004FFF3055601C84B24445F7DB102103486F
:1045F00001F0C7F8BDE8F08100300140000801403B
:1046000008B50121082001F0C7FA4FF4F840ADF8D1
:10461000000003208DF8020010208DF80300694689
:10462000F84801F003F84FF48041F64801F0A9F88A
:104630004FF40061F34801F0A6F84FF40051F1483F
:1046400001F0A1F80A2000F047FB4FF40051ED48BB
:1046500001F097F808BD70B504464FF48041E94871
:1046600001F091F84FF48051E64801F08CF80025F4
:104670001BE04FF48061E34801F085F814F0800FEF
:1046800005D04FF40061DF4801F07BF804E04FF4FF
:104690000061DC4801F077F84FF48061D94801F0FF
:1046A00070F860000446681CC5B2082DE1DB4FF4C9
:1046B0008041D44801F065F870BD10B5FFF7A0FF48
:1046C0004FF40051CF4801F05EF80A2000F004FBDF
:1046D0004FF40051CB4801F054F80A2000F0FCFAE6
:1046E000E220FFF7B8FF052000F0F6FA2C20FFF7D4
:1046F000B2FF322000F0F0FA2E20FFF7ACFF32209C
:1047000000F0EAFA2F20FFF7A6FF052000F0E4FAF8
:104710002320FFF7A0FF8120FFF79DFF2820FFF750
:104720009AFFA220FFF797FFC820FFF794FFA02071
:10473000FFF791FF4020FFF78EFFAF20FFF78BFFC1
:1047400010BD70B504464FF48041AE4801F01BF82F
:104750004FF48051AB4801F014F800251CE04FF4F1
:104760008061A84801F00FF814F0800F05D04FF4D5
:104770000061A44801F005F804E04FF40061A1488D
:1047800001F001F84FF480619E4800F0FAFF6006E6
:10479000000E0446681CC5B2082DE0DB4FF48041D2
:1047A000984800F0EEFF70BD70B505460C46601EDF
:1047B000C4B205F1AF00FFF74EFF102101EB14105A
:1047C000FFF749FF04F00F00FFF745FF70BD70B51C
:1047D000002414E004F1B000FFF73DFF1020FFF7C4
:1047E0003AFF0020FFF737FF002504E00020FFF725
:1047F000A8FF681CC5B2842DF8DB601CC4B2092C6C
:10480000E8DB70BD2DE9F0410646884614460025D8
:1048100010E07119C8B24146FFF7C6FF002705E056
:104820002078FFF78EFF641C781C87B2102FF7DB0F
:10483000681C85B2022DECDBBDE8F0812DE9F04F5C
:1048400089B00746884691469A46DDF848B03E460C
:10485000012E00D10AE0022E01D1032606E0032E2C
:1048600001D1052602E0042E00D1072601250024EF
:1048700007E098F8000001A9085508F10108601C3C
:10488000C4B2202CF5DB01AA29463046FFF7BAFF57
:1048900005F11000C5B2002407E099F8000001A955
:1048A000085509F10109601CC4B2202CF5DB01AAEE
:1048B00029463046FFF7A6FF05F11000C5B20024D7
:1048C00007E09AF8000001A908550AF1010A601CE6
:1048D000C4B2202CF5DB01AA29463046FFF792FF2F
:1048E00005F11000C5B2002407E09BF8000001A903
:1048F00008550BF1010B601CC4B2202CF5DB01AA9A
:1049000029463046FFF77EFF05F11000C5B20024AE
:1049100008E01398007801A908551398401C1390DB
:10492000601CC4B2202CF4DB01AA29463046FFF7F4
:1049300069FF05F11000C5B2002408E01498007862
:1049400001A908551498401C1490601CC4B2202C76
:10495000F4DB01AA29463046FFF754FF05F11000A9
:10496000C5B2002408E01598007801A908551598EB
:10497000401C1590601CC4B2202CF4DB01AA29460F
:104980003046FFF73FFF05F11000C5B2002408E0F4
:104990001698007801A908551698401C1690601CBE
:1049A000C4B2202CF4DB01AA29463046FFF72AFFC7
:1049B00009B0BDE8F08F00B585B0FFF708FF1248D9
:1049C000014602460346CDE90132CDE903100090CD
:1049D0000120FFF733FF002005B000BD00B585B012
:1049E000FFF7F5FE0948014602460346CDE90132CC
:1049F000CDE9031000900120FFF720FF002005B053
:104A000000BD0000000C0140600200208002002078
:104A100010B586B00446FFF7DAFEFFF7D8FE022C89
:104A20003AD003DC3CB1012C77D124E0032C76D0C2
:104A30000A2CF9D184E0874801460246864BCDE92D
:104A40000132CDE903108548854B864A864900909E
:104A50000120FFF7F3FE7F4801460246834BCDE974
:104A60000132CDE9031082487D4B7E4A009002203E
:104A7000FFF7E4FEEAE07748014602467D4BCDE9C8
:104A80000132CDE903107448744B7B4A7B49009096
:104A90000120FFF7D3FED9E06E487749774A784B7B
:104AA000CDE90132CDE903107648774B774A6E495C
:104AB00000900120FFF7C2FE66486F496F4A704BB5
:104AC000CDE90132CDE9031071486F4B6F4A61495E
:104AD00000900220FFF7B2FE5E486749674A684BC4
:104AE000CDE90132CDE903106A48674B674A59495D
:104AF00000900320FFF7A2FE56485F495F4A604BD3
:104B0000CDE90132CDE9031063485F4B5F4A51495B
:104B100000900420FFF792FE98E096E0FFE74D48F2
:104B200001460246534BCDE90132CDE903104F480F
:104B30004F4B514A514900900120FFF77FFE85E01D
:104B40005648007800F00200022810D141484A4936
:104B50004A4A4B4BCDE90132CDE903104C484A4B50
:104B60004A4A3C4900900120FFF768FE0FE03948AF
:104B70004149424A424BCDE90132CDE90310444854
:104B8000414B474A334900900120FFF757FE434805
:104B9000007800F00400042810D12E483649374A26
:104BA000374BCDE90132CDE903103A48364B374A4D
:104BB000284900900220FFF741FE0FE025482E49CA
:104BC0002E4A2F4BCDE90132CDE9031031482E4B4F
:104BD000334A204900900220FFF730FE2F4800782A
:104BE00000F00800082810D11A482349234A244B12
:104BF000CDE90132CDE903102748234B234A15495B
:104C000000900320FFF71AFE0FE012481A491B4AD2
:104C10001B4BCDE90132CDE903101F481A4B204A46
:104C20000C4900900320FFF709FE0A48014602469E
:104C30000346CDE90132CDE903100C4B0C4A0A4979
:104C400000900320FFF7FAFD00E000BF00BF002046
:104C500006B010BD98050020E0000020C000002034
:104C60000000002020000020A002002020010020E1
:104C7000000100204002002020020020000200204D
:104C8000E00100206001002040010020800200209F
:104C900080010020A0010020C00100203805002074
:104CA0006002002010B504466FF0040000F040FCE4
:104CB000E11704EB5171C1F3C701224A117010468C
:104CC000007800EB4001C1EBC0104FF6FF7101EA24
:104CD000C0001D49088010BD01461B4A12884A4386
:104CE0004FF0E0235A6100229A6101221A6100BF4D
:104CF0004FF0E022106910F0010F02D010F4803F55
:104D0000F6D000224FF0E0231A619A617047014605
:104D10000C4A12784A434FF0E0235A6100229A610C
:104D200001221A6100BF4FF0E022106910F0010F5C
:104D300002D010F4803FF6D000224FF0E0231A6139
:104D40009A617047680500206A05002010B54FF48D
:104D5000A06000F09DFB10BD014600BF704700BF82
:104D6000F74A128812F0400FFAD0C2B2F44B1B1D62
:104D70001A80704710B586B00446012144F2050040
:104D800000F00AFF4FF40070ADF8140003208DF816
:104D9000160018208DF8170005A9EA4800F046FC17
:104DA0004FF48060ADF8140004208DF8170005A9B9
:104DB000E44800F03BFC25208DF8000003208DF82E
:104DC00001008DF8020001208DF80300684600F014
:104DD00064FB01940020ADF80800ADF80A00ADF8BE
:104DE0000C00ADF810000C20ADF80E0001A9D4485D
:104DF00002F011F8012240F22551D14802F0A3F847
:104E00000121CF4802F093F806B010BD10B586B06E
:104E100004460121480400F0CCFE0121052000F0E9
:104E2000BBFE0420ADF8140003208DF816001820F6
:104E30008DF8170005A9C34800F0F8FB0820ADF86D
:104E4000140004208DF8170005A9BE4800F0EEFB01
:104E500026208DF8000003208DF801008DF8020057
:104E600001208DF80300684600F017FB0194002034
:104E7000ADF808004FF40050ADF80A000020ADF87E
:104E80000C00ADF810000C20ADF80E0001A9AE48E2
:104E900001F0C1FF012240F22551AB4802F053F866
:104EA0000121A94802F043F806B010BD38B5044608
:104EB0004FF44060ADF8000003208DF8020004209C
:104EC0008DF803006946A14800F0B0FB38BD70B50D
:104ED00004460D4600BF8021204602F003F9002859
:104EE000F9D02946204602F08FF870BD10B504466F
:104EF0004FF49670FDF77CFB00BF2021204602F0A6
:104F0000F1F818B9924800780128F6D1FDF782FB34
:104F1000204602F07DF8C0B210BD2DE9F0410746F1
:104F20000D461646002405E0295D3846FFF7CFFF01
:104F3000601CC4B2B442F7DBBDE8F0812DE9F0415A
:104F400007460D461646002405E03846FFF7CEFF1B
:104F50002855601CC4B2B442F7DBBDE8F08170B5DF
:104F600005460C4604E021782846FFF7B0FF641C94
:104F700020780028F7D170BD7CB506460C4600208D
:104F80008DF806008DF8000078208DF801000525C9
:104F900007E0E0B26F49085C0DF805002411681EB7
:104FA000C5B2022DF5DA69463046FFF7D8FF7CBD61
:104FB000FEB506460D4609240BE00A20B5FBF0F1CC
:104FC00000FB115030300DF804000A20B5FBF0F55D
:104FD000641E002CF1DA002405E01DF804003028DE
:104FE00000D002E0641C092CF7DB00BF05E01DF8CF
:104FF00004103046FFF76BFF641C0A2CF7DBFEBD84
:1050000070B505460C4630212846FFF760FF782131
:105010002846FFF75CFF4F4800EB24100178284634
:10502000FFF755FF04F00F004A4A115C2846FFF7CE
:105030004EFF20212846FFF74AFF70BD2DE9F047BB
:1050400004460F4615461E46DDF820804FEA242907
:1050500004F0FF0A55213C48FFF739FFAA213A48DE
:10506000FFF735FF02213848FFF731FF3946364850
:10507000FFF72DFF29463448FFF729FF3146324814
:10508000FFF725FF41463048FFF721FF49462E48EC
:10509000FFF71DFF51462C48FFF719FFBDE8F087C9
:1050A00070B504462512E6B255212748FFF70FFFD9
:1050B000AA212548FFF70BFF03212348FFF707FF2D
:1050C00000212148FFF703FF00211F48FFF7FFFEE3
:1050D00000211D48FFF7FBFE00211B48FFF7F7FEEC
:1050E00029461948FFF7F3FE31461748FFF7EFFE50
:1050F00070BD70B518480078022819D140F22551CA
:105100000F4802F005F8002812D00D4801F080FF8A
:10511000C4B21248007890B97E2C0AD101200F4900
:1051200008700F4804700F48007820440D4908703B
:10513000DBE00020094908700A490870D5E013E057
:10514000003801400008014000440040000C0140CC
:10515000240500206D050020390500203C050020B5
:105160002D0600204205002094480078012812D125
:105170007E2C0AD1022091490870914844709148D0
:10518000007820448F490870AFE000208B490870F8
:105190008C490870A9E089480078022824D1CD2CD8
:1051A0000DD1032085490870012087490870844883
:1051B00084708448007820448249087095E0DA2C95
:1051C0000DD103207D49087002207F4908707C487A
:1051D00084707C48007820447A49087085E0002477
:1051E00000207849087080E0744801780078401CFD
:1051F000724A10707248445473480078012864D190
:1052000010460078052870D16D48C078092810D163
:105210006B480079D2280CD101206C49087000201D
:10522000114608706749087069A17048FFF797FE3A
:105230005BE06348C078042810D161480079CD282C
:105240000CD102206149087000205C4908705D495A
:10525000087067A16548FFF782FE46E0584800796C
:10526000CA2826D1032059490870002053490870E4
:10527000544908705248C178C8226448FFF794F92D
:1052800063A15A48FFF76BFE4D48C1785748FFF7B6
:10529000B7FE63A15548FFF762FE002506E05B48B4
:1052A000415D5248FFF7ACFE681CC5B2C82DF6DB65
:1052B0001BE00020454908704049087041490870CA
:1052C0005AA14A48FFF74BFE0FE03C480078C82837
:1052D00006D1FF203D49087000203849087004E0DD
:1052E0003848007820443749087040F225513F483B
:1052F00001F038FF70BD10B5504801F089FEC4B20E
:105300004F48007860B9552C06D101204C490870EF
:1053100055204C49087044E000204949087040E09D
:1053200047480078012812D1AA2C06D1022044490E
:105330000870AA204349487033E0552C03D101205E
:105340003F4908702DE000203D49087029E03C48A5
:105350000078022805D13B48847003203849087042
:105360001FE037480078032805D13648C470042070
:105370003349087015E032480078042805D13148D7
:10538000047105202E4908700BE02D48007805288F
:1053900007D12C48447100202949087001202A496E
:1053A000087040F22551254801F0DCFE10BD10B513
:1053B00040F22551254801F0D5FE10BD3C050020E6
:1053C0002D060020420500203E0500203D0500205E
:1053D000CAD5B5BDD6B8C1EE312D2DB3F5CABCBB0B
:1053E000AFD6B8C1EEA3A10A00000000003801400A
:1053F000CAD5B5BDD6B8C1EE322D2DD7B0B6A9CD20
:10540000EAB3C9D6B8C1EEA3A10A0000F506002090
:10541000B6C1C8A1464C414853B5DA20000000008F
:10542000D2B3CAFDBEDD3A0A00000000CAD5B5BD40
:10543000B4EDCEF3D6B8C1EE210A0000004400401E
:105440006C050020B80500202E0500200048004013
:105450000948804709480047FEE7FEE7FEE7FEE708
:10546000FEE7FEE7FEE7FEE7FEE7FEE70448054944
:10547000054A064B7047000049240008ED0000086B
:1054800020080020200E0020200A0020200A0020F2
:1054900031490143314A1160704770B50021002342
:1054A0000F22C4780CB32D4C246804F4E064C4F5D6
:1054B000E064210AC1F10403CA40447804FA03F10C
:1054C0008478144021430901254C0678A1550478BD
:1054D00004F01F050124AC4005786D114FF0E02663
:1054E00006EB8505C5F8004109E0047804F01F05C6
:1054F0000124AC401B4D0678761145F8264070BD5E
:10550000194A0A400243154B1B1F1A60704739B1F4
:10551000124A121D12680243104B1B1D1A6006E04E
:105520000E4A121D126882430C4B1B1D1A607047F5
:10553000042808D14FF0E021096941F004014FF03F
:10554000E022116107E04FF0E021096921F0040138
:105550004FF0E022116170470000FA050CED00E009
:1055600000E400E080E100E080FFFF1F10B504468A
:10557000CA48844208D10121042000F027FB002101
:10558000042000F023FB46E0C548844208D10121F5
:10559000082000F01BFB0021082000F017FB3AE078
:1055A000C048844208D10121102000F00FFB0021E7
:1055B000102000F00BFB2EE0BB48844208D10121F3
:1055C000202000F003FB0021202000F0FFFA22E061
:1055D000B648844208D10121402000F0F7FA0021AA
:1055E000402000F0F3FA16E0B148844208D10121CE
:1055F000802000F0EBFA0021802000F0E7FA0AE0BA
:10560000AC48844207D10121801500F0DFFA002167
:10561000A01500F0DBFA10BD10B50121084600F01E
:10562000D5FA0021012000F0D1FA10BD2DE9F0419A
:10563000024600250026002000230024002791F8C0
:1056400003C00CF00F0591F803C01CF0100F03D03D
:1056500091F802C04CEA050591F800C0BCF1000FBA
:1056600031D0146800202BE04FF0010C0CFA00F34D
:10567000B1F800C00CEA03069E4220D183004FF02F
:105680000F0C0CFA03F7BC4305FA03FC4CEA0404C4
:1056900091F803C0BCF1280F06D14FF0010C0CFAB1
:1056A00000FCC2F814C00AE091F803C0BCF1480F36
:1056B00005D14FF0010C0CFA00FCC2F810C0401CE0
:1056C0000828D1D31460B1F800C0BCF1FF0F34DD5D
:1056D000546800202EE000F1080C4FF0010808FA91
:1056E0000CF3B1F800C00CEA03069E4221D18300FE
:1056F0004FF00F0C0CFA03F7BC4305FA03FC4CEA1D
:10570000040491F803C0BCF1280F05D100F1080C86
:1057100008FA0CF8C2F8148091F803C0BCF1480FE5
:1057200007D100F1080C4FF0010808FA0CF8C2F894
:105730001080401C0828CED35460BDE8F0814FF69D
:10574000FF710180022181700421C17070470246FF
:10575000002093680B4201D0012000E00020704738
:105760000146886880B2704702460020D3680B4229
:1057700001D0012000E0002070470146C86880B2D7
:10578000704701617047416170470AB1016100E0F3
:1057900041617047C16070474FF480320A438261B3
:1057A0008161826182698269704702460020424BB2
:1057B00018684FF68073184040EA021008433E4BC9
:1057C000186070473D49C8617047F0B50A4600232C
:1057D00000240021002500F00046B6F1004F02D160
:1057E000354EF16901E0344E7168C0F3034583B270
:1057F00000F44016B6F5401F08D121F070612E4E1E
:10580000766826F070662C4F7E6012E000F48016F9
:10581000B6F5801F06D1032606FA05F4A14341F030
:10582000706106E0460D360103FA06F6B14341F019
:10583000706122B1460D360103FA06F6314300F0DD
:105840000046B6F1004F02D11B4EF16101E01A4E45
:105850007160F0BD30B500228B071C0F0F2303FAD7
:1058600004F2154B08338C1053F824309343124C38
:1058700008348D1044F8253023468C1053F824301A
:105880008C07240F00FA04F423430B4C08348D10CA
:1058900044F8253030BD0A490860704700080140CF
:1058A000000C0140001001400014014000180140AC
:1058B000001C014000200140000001400000204287
:1058C000DC002042DD48006840F00100DB49086050
:1058D00008464068DA490840D849486008460068E8
:1058E000D8490840D54908600846006820F480205F
:1058F00008600846406820F4FE0048604FF41F002E
:1059000088607047CD49096821F48031CB4A116025
:105910001146096821F480211160B0F5803F03D061
:10592000B0F5802F0ED106E0C449096841F48031FA
:10593000C24A116007E0C149096841F4A021BF4A89
:10594000116000E000BF00BF704710B501460022A3
:10595000002300204A11012A02D1B84C236806E036
:10596000022A02D1B54C236A01E0B44C636A01F00B
:105970001F02012494401C4201D0012000E00020BD
:1059800010BD38B5002000900024002500BF312054
:10599000FFF7DBFF05460098401C00900098B0F52B
:1059A000A06F01D0002DF2D03120FFF7CEFF08B15B
:1059B000012400E00024204638BD014600209F4A13
:1059C000106820F0F80040EAC100106070479E495E
:1059D0000860704702460020984B586820F47C10FD
:1059E00042EA01031843954B586070479649086690
:1059F000704701460020914A506820F00300084398
:105A0000506070478D48406800F00C0070470146B8
:105A100000208A4A506820F0F00008435060704728
:105A200001460020854A506820F4E0600843506039
:105A3000704701460020814A506820F4605040EAD7
:105A4000C1005060704729B17C4A527A02437B4BB7
:105A50005A7204E0794A527A8243784B5A727047FC
:105A60007A490860704701460020744A506820F463
:105A700040400843506070470021754A11706F4ADA
:105A800082F82010012802D0042808D103E0012167
:105A90006F4A117004E005216D4A117000E000BFEB
:105AA00000BF70476B49086070476449096A014349
:105AB000624A11627047674944390860704730B5DF
:105AC00000210022002400235C4D6D6805F00C01CC
:105AD00021B1042905D0082923D105E05E4D0560D8
